{
  "contractName": "Election",
  "abi": [
    {
      "inputs": [],
      "stateMutability": "nonpayable",
      "type": "constructor"
    },
    {
      "anonymous": false,
      "inputs": [
        {
          "indexed": false,
          "internalType": "uint256",
          "name": "id",
          "type": "uint256"
        },
        {
          "indexed": false,
          "internalType": "string",
          "name": "name",
          "type": "string"
        },
        {
          "indexed": false,
          "internalType": "uint256",
          "name": "votecount",
          "type": "uint256"
        }
      ],
      "name": "electionupdated",
      "type": "event"
    },
    {
      "inputs": [
        {
          "internalType": "uint256",
          "name": "",
          "type": "uint256"
        }
      ],
      "name": "candidates",
      "outputs": [
        {
          "internalType": "uint256",
          "name": "id",
          "type": "uint256"
        },
        {
          "internalType": "string",
          "name": "name",
          "type": "string"
        },
        {
          "internalType": "uint256",
          "name": "votecount",
          "type": "uint256"
        }
      ],
      "stateMutability": "view",
      "type": "function",
      "constant": true
    },
    {
      "inputs": [],
      "name": "candidatesCount",
      "outputs": [
        {
          "internalType": "uint256",
          "name": "",
          "type": "uint256"
        }
      ],
      "stateMutability": "view",
      "type": "function",
      "constant": true
    },
    {
      "inputs": [
        {
          "internalType": "address",
          "name": "",
          "type": "address"
        }
      ],
      "name": "votedornot",
      "outputs": [
        {
          "internalType": "bool",
          "name": "",
          "type": "bool"
        }
      ],
      "stateMutability": "view",
      "type": "function",
      "constant": true
    },
    {
      "inputs": [
        {
          "internalType": "uint256",
          "name": "_id",
          "type": "uint256"
        }
      ],
      "name": "Vote",
      "outputs": [],
      "stateMutability": "nonpayable",
      "type": "function"
    }
  ],
  "bytecode": "0x60806040523480156200001157600080fd5b50620000586040518060400160405280600c81526020017f446f6e616c64205472756d700000000000000000000000000000000000000000815250620000a460201b60201c565b6200009e6040518060400160405280600b81526020017f426172616b204f62616d61000000000000000000000000000000000000000000815250620000a460201b60201c565b620002c4565b600080815480929190620000b89062000211565b919050555060405180606001604052806000548152602001828152602001600081525060016000805481526020019081526020016000206000820151816000015560208201518160010190805190602001906200011792919062000128565b506040820151816002015590505050565b82805462000136906200028e565b90600052602060002090601f0160209004810192826200015a5760008555620001a6565b82601f106200017557805160ff1916838001178555620001a6565b82800160010185558215620001a6579182015b82811115620001a557825182559160200191906001019062000188565b5b509050620001b59190620001b9565b5090565b5b80821115620001d4576000816000905550600101620001ba565b5090565b7f4e487b7100000000000000000000000000000000000000000000000000000000600052601160045260246000fd5b6000819050919050565b60006200021e8262000207565b91507fffffffffffffffffffffffffffffffffffffffffffffffffffffffffffffffff821415620002545762000253620001d8565b5b600182019050919050565b7f4e487b7100000000000000000000000000000000000000000000000000000000600052602260045260246000fd5b60006002820490506001821680620002a757607f821691505b60208210811415620002be57620002bd6200025f565b5b50919050565b6108b180620002d46000396000f3fe608060405234801561001057600080fd5b506004361061004c5760003560e01c80631bc57022146100515780632d35a8a2146100815780633477ee2e1461009f578063dcd6a5cd146100d1575b600080fd5b61006b600480360381019061006691906103fd565b6100ed565b6040516100789190610445565b60405180910390f35b61008961010d565b6040516100969190610479565b60405180910390f35b6100b960048036038101906100b491906104c0565b610113565b6040516100c893929190610586565b60405180910390f35b6100eb60048036038101906100e691906104c0565b6101c5565b005b60026020528060005260406000206000915054906101000a900460ff1681565b60005481565b600160205280600052604060002060009150905080600001549080600101805461013c906105f3565b80601f0160208091040260200160405190810160405280929190818152602001828054610168906105f3565b80156101b55780601f1061018a576101008083540402835291602001916101b5565b820191906000526020600020905b81548152906001019060200180831161019857829003601f168201915b5050505050908060020154905083565b600260003373ffffffffffffffffffffffffffffffffffffffff1673ffffffffffffffffffffffffffffffffffffffff16815260200190815260200160002060009054906101000a900460ff1615610252576040517f08c379a000000000000000000000000000000000000000000000000000000000815260040161024990610697565b60405180910390fd5b6000600160008381526020019081526020016000206000015414156102ac576040517f08c379a00000000000000000000000000000000000000000000000000000000081526004016102a390610703565b60405180910390fd5b600180600083815260200190815260200160002060020160008282546102d29190610752565b925050819055506001600260003373ffffffffffffffffffffffffffffffffffffffff1673ffffffffffffffffffffffffffffffffffffffff16815260200190815260200160002060006101000a81548160ff0219169083151502179055507f3c841f91385f410e6f12269c9a0c0eb656e360f1e2d6f91144cfd51a10a2a3188160016000848152602001908152602001600020600101600160008581526020019081526020016000206002015460405161038f9392919061083d565b60405180910390a150565b600080fd5b600073ffffffffffffffffffffffffffffffffffffffff82169050919050565b60006103ca8261039f565b9050919050565b6103da816103bf565b81146103e557600080fd5b50565b6000813590506103f7816103d1565b92915050565b6000602082840312156104135761041261039a565b5b6000610421848285016103e8565b91505092915050565b60008115159050919050565b61043f8161042a565b82525050565b600060208201905061045a6000830184610436565b92915050565b6000819050919050565b61047381610460565b82525050565b600060208201905061048e600083018461046a565b92915050565b61049d81610460565b81146104a857600080fd5b50565b6000813590506104ba81610494565b92915050565b6000602082840312156104d6576104d561039a565b5b60006104e4848285016104ab565b91505092915050565b600081519050919050565b600082825260208201905092915050565b60005b8381101561052757808201518184015260208101905061050c565b83811115610536576000848401525b50505050565b6000601f19601f8301169050919050565b6000610558826104ed565b61056281856104f8565b9350610572818560208601610509565b61057b8161053c565b840191505092915050565b600060608201905061059b600083018661046a565b81810360208301526105ad818561054d565b90506105bc604083018461046a565b949350505050565b7f4e487b7100000000000000000000000000000000000000000000000000000000600052602260045260246000fd5b6000600282049050600182168061060b57607f821691505b6020821081141561061f5761061e6105c4565b5b50919050565b7f796f75206861766520766f74656420666f72207468652070617274696369706160008201527f6e74000000000000000000000000000000000000000000000000000000000000602082015250565b60006106816022836104f8565b915061068c82610625565b604082019050919050565b600060208201905081810360008301526106b081610674565b9050919050565b7f54686520696420646f65736e6f74206578697374000000000000000000000000600082015250565b60006106ed6014836104f8565b91506106f8826106b7565b602082019050919050565b6000602082019050818103600083015261071c816106e0565b9050919050565b7f4e487b7100000000000000000000000000000000000000000000000000000000600052601160045260246000fd5b600061075d82610460565b915061076883610460565b9250827fffffffffffffffffffffffffffffffffffffffffffffffffffffffffffffffff0382111561079d5761079c610723565b5b828201905092915050565b60008190508160005260206000209050919050565b600081546107ca816105f3565b6107d481866104f8565b945060018216600081146107ef576001811461080157610834565b60ff1983168652602086019350610834565b61080a856107a8565b60005b8381101561082c5781548189015260018201915060208101905061080d565b808801955050505b50505092915050565b6000606082019050610852600083018661046a565b818103602083015261086481856107bd565b9050610873604083018461046a565b94935050505056fea264697066735822122087bdd78ecde4c7ba0232185ba2c6530e153c2da4a3e085684a32894ee46d26cf64736f6c634300080b0033",
  "immutableReferences": {},
  "source": "// SPDX-License-Identifier: MIT\npragma solidity >=0.7.0 <0.9.0;\n\ncontract Election{\n   struct Candidate{\n       uint id;\n       string name;\n       uint votecount;\n   }\n   uint public candidatesCount;\n\n   mapping(uint => Candidate) public candidates;\n   mapping(address => bool)public votedornot;\n   \n   event electionupdated(\n     uint id,\n     string name,\n     uint votecount\n   );\n   constructor(){\n     addCandidate(\"Donald Trump\");\n     addCandidate(\"Barak Obama\");    \n   }\n   function addCandidate(string memory name)private{\n       candidatesCount++;\n       candidates[candidatesCount] = Candidate(candidatesCount,name,0);\n   }\n   function Vote(uint _id)public{\n    require(!votedornot[msg.sender],\"you have voted for the participant\");\n    require(candidates[_id].id != 0,\"The id doesnot exist\");\n    \n    candidates[_id].votecount+=1;\n    votedornot[msg.sender] = true;   \n    emit electionupdated(_id,candidates[_id].name,candidates[_id].votecount);\n   }\n}",
  "sourcePath": "F:\\blockchain\\sm_d\\frontend\\contracts\\Election.sol",
  "compiler": {
    "name": "solc",
    "version": "0.8.11+commit.d7f03943.Emscripten.clang"
  },
  "schemaVersion": "3.4.3",
  "updatedAt": "2021-12-29T05:52:02.812Z",
  "networkType": "ethereum",
  "devdoc": {
    "kind": "dev",
    "methods": {},
    "version": 1
  },
  "userdoc": {
    "kind": "user",
    "methods": {},
    "version": 1
  }
}